{
  "_format": "hh-sol-artifact-1",
  "contractName": "EthToStethStaking",
  "sourceName": "contracts/ProxyContractLido.sol",
  "abi": [
    {
      "inputs": [
        {
          "internalType": "address",
          "name": "_lido",
          "type": "address"
        },
        {
          "internalType": "address",
          "name": "_withdrawalQueue",
          "type": "address"
        }
      ],
      "stateMutability": "nonpayable",
      "type": "constructor"
    },
    {
      "anonymous": false,
      "inputs": [
        {
          "indexed": true,
          "internalType": "address",
          "name": "user",
          "type": "address"
        },
        {
          "indexed": false,
          "internalType": "uint256",
          "name": "ethAmount",
          "type": "uint256"
        },
        {
          "indexed": false,
          "internalType": "uint256",
          "name": "stEthReceived",
          "type": "uint256"
        },
        {
          "indexed": false,
          "internalType": "uint256",
          "name": "lockUntil",
          "type": "uint256"
        }
      ],
      "name": "Staked",
      "type": "event"
    },
    {
      "anonymous": false,
      "inputs": [
        {
          "indexed": true,
          "internalType": "address",
          "name": "user",
          "type": "address"
        },
        {
          "indexed": false,
          "internalType": "uint256[]",
          "name": "requestIds",
          "type": "uint256[]"
        },
        {
          "indexed": false,
          "internalType": "address",
          "name": "recipient",
          "type": "address"
        }
      ],
      "name": "WithdrawalClaimed",
      "type": "event"
    },
    {
      "anonymous": false,
      "inputs": [
        {
          "indexed": true,
          "internalType": "address",
          "name": "user",
          "type": "address"
        },
        {
          "indexed": false,
          "internalType": "uint256",
          "name": "totalStEthAmount",
          "type": "uint256"
        },
        {
          "indexed": false,
          "internalType": "uint256[]",
          "name": "requestIds",
          "type": "uint256[]"
        }
      ],
      "name": "WithdrawalRequested",
      "type": "event"
    },
    {
      "stateMutability": "payable",
      "type": "fallback"
    },
    {
      "inputs": [
        {
          "internalType": "uint256[]",
          "name": "requestIds",
          "type": "uint256[]"
        },
        {
          "internalType": "address",
          "name": "recipient",
          "type": "address"
        }
      ],
      "name": "claimWithdrawalsTo",
      "outputs": [],
      "stateMutability": "nonpayable",
      "type": "function"
    },
    {
      "inputs": [
        {
          "internalType": "address",
          "name": "user",
          "type": "address"
        }
      ],
      "name": "getStEthBalance",
      "outputs": [
        {
          "internalType": "uint256",
          "name": "withdrawableBalance",
          "type": "uint256"
        },
        {
          "internalType": "uint256",
          "name": "lockedBalance",
          "type": "uint256"
        }
      ],
      "stateMutability": "view",
      "type": "function"
    },
    {
      "inputs": [
        {
          "internalType": "address",
          "name": "user",
          "type": "address"
        }
      ],
      "name": "getUserWithdrawalNFTs",
      "outputs": [
        {
          "internalType": "uint256[]",
          "name": "nfts",
          "type": "uint256[]"
        }
      ],
      "stateMutability": "view",
      "type": "function"
    },
    {
      "inputs": [],
      "name": "lido",
      "outputs": [
        {
          "internalType": "contract ILido",
          "name": "",
          "type": "address"
        }
      ],
      "stateMutability": "view",
      "type": "function"
    },
    {
      "inputs": [
        {
          "internalType": "uint256",
          "name": "totalStEthAmount",
          "type": "uint256"
        }
      ],
      "name": "requestWithdrawal",
      "outputs": [],
      "stateMutability": "nonpayable",
      "type": "function"
    },
    {
      "inputs": [
        {
          "internalType": "uint256",
          "name": "lockTime",
          "type": "uint256"
        }
      ],
      "name": "stake",
      "outputs": [],
      "stateMutability": "payable",
      "type": "function"
    },
    {
      "inputs": [
        {
          "internalType": "address",
          "name": "",
          "type": "address"
        },
        {
          "internalType": "uint256",
          "name": "",
          "type": "uint256"
        }
      ],
      "name": "userStakes",
      "outputs": [
        {
          "internalType": "uint256",
          "name": "originalAmount",
          "type": "uint256"
        },
        {
          "internalType": "uint256",
          "name": "remainingAmount",
          "type": "uint256"
        },
        {
          "internalType": "uint256",
          "name": "lockUntil",
          "type": "uint256"
        },
        {
          "internalType": "bool",
          "name": "isProcessed",
          "type": "bool"
        }
      ],
      "stateMutability": "view",
      "type": "function"
    },
    {
      "inputs": [
        {
          "internalType": "address",
          "name": "",
          "type": "address"
        },
        {
          "internalType": "uint256",
          "name": "",
          "type": "uint256"
        }
      ],
      "name": "userWithdrawalNFTs",
      "outputs": [
        {
          "internalType": "uint256",
          "name": "",
          "type": "uint256"
        }
      ],
      "stateMutability": "view",
      "type": "function"
    },
    {
      "inputs": [],
      "name": "withdrawalQueue",
      "outputs": [
        {
          "internalType": "contract IWithdrawalQueue",
          "name": "",
          "type": "address"
        }
      ],
      "stateMutability": "view",
      "type": "function"
    },
    {
      "stateMutability": "payable",
      "type": "receive"
    }
  ],
  "bytecode": "0x60806040523480156200001157600080fd5b506040516200175c3803806200175c833981016040819052620000349162000149565b6001600160a01b038216620000905760405162461bcd60e51b815260206004820152601d60248201527f496e76616c6964204c69646f20636f6e7472616374206164647265737300000060448201526064015b60405180910390fd5b6001600160a01b038116620000fa5760405162461bcd60e51b815260206004820152602960248201527f496e76616c6964205769746864726177616c20517565756520636f6e7472616360448201526874206164647265737360b81b606482015260840162000087565b600080546001600160a01b039384166001600160a01b0319918216179091556001805492909316911617905562000181565b80516001600160a01b03811681146200014457600080fd5b919050565b600080604083850312156200015d57600080fd5b62000168836200012c565b915062000178602084016200012c565b90509250929050565b6115cb80620001916000396000f3fe60806040526004361061007a5760003560e01c806323509a2d146100c757806337d5fe99146100fd5780634c6701641461011d5780635c2589841461013f57806360fb23941461016c5780637ce7da3c146101a15780639ee679e8146101cf578063a694fc3a146101ef578063b5d5b5fa1461020257610081565b3661008157005b60405162461bcd60e51b8152602060048201526016602482015275119d5b98dd1a5bdb881b9bdd081cdd5c1c1bdc9d195960521b60448201526064015b60405180910390fd5b3480156100d357600080fd5b506000546100e7906001600160a01b031681565b6040516100f49190611190565b60405180910390f35b34801561010957600080fd5b506001546100e7906001600160a01b031681565b34801561012957600080fd5b5061013d6101383660046111c0565b610244565b005b34801561014b57600080fd5b5061015f61015a366004611243565b6105d7565b6040516100f491906112a0565b34801561017857600080fd5b5061018c610187366004611243565b610643565b604080519283526020830191909152016100f4565b3480156101ad57600080fd5b506101c16101bc3660046112b3565b6107bb565b6040519081526020016100f4565b3480156101db57600080fd5b5061013d6101ea3660046112dd565b6107ec565b61013d6101fd3660046112dd565b610dbf565b34801561020e57600080fd5b5061022261021d3660046112b3565b610fb9565b60408051948552602085019390935291830152151560608201526080016100f4565b816102885760405162461bcd60e51b81526020600482015260146024820152734e6f20726571756573747320746f20636c61696d60601b60448201526064016100be565b6001600160a01b0381166102d25760405162461bcd60e51b8152602060048201526011602482015270125b9d985b1a59081c9958da5c1a595b9d607a1b60448201526064016100be565b60005b828110156103f2576102ff338585848181106102f3576102f36112f6565b90506020020135611002565b61034b5760405162461bcd60e51b815260206004820152601d60248201527f496e76616c6964206f7220756e6f776e6564207265717565737420494400000060448201526064016100be565b6001546001600160a01b03166323b872dd3330878786818110610370576103706112f6565b6040516001600160e01b031960e088901b1681526001600160a01b03958616600482015294909316602485015250602090910201356044820152606401600060405180830381600087803b1580156103c757600080fd5b505af11580156103db573d6000803e3d6000fd5b5050505080806103ea90611322565b9150506102d5565b5060015460408051632937571f60e11b815290516000926001600160a01b03169163526eae3e9160048083019260209291908290030181865afa15801561043d573d6000803e3d6000fd5b505050506040513d601f19601f82011682018060405250810190610461919061133b565b60018054604051633155f1fd60e11b81529293506000926001600160a01b03909116916362abe3fa9161049d9189918991908890600401611386565b600060405180830381865afa1580156104ba573d6000803e3d6000fd5b505050506040513d6000823e601f3d908101601f191682016040526104e291908101906113c3565b600154604051635e7eead960e01b81529192506001600160a01b031690635e7eead990610519908890889086908990600401611480565b600060405180830381600087803b15801561053357600080fd5b505af1158015610547573d6000803e3d6000fd5b5050505060005b8481101561058a576105783387878481811061056c5761056c6112f6565b905060200201356110bc565b8061058281611322565b91505061054e565b50336001600160a01b03167f47dd2efcafc8e483daa109178511a763f790975b58274457e49acb5abede8a548686866040516105c8939291906114c0565b60405180910390a25050505050565b6001600160a01b03811660009081526003602090815260409182902080548351818402810184019094528084526060939283018282801561063757602002820191906000526020600020905b815481526020019060010190808311610623575b50505050509050919050565b600080600080600060026000876001600160a01b03166001600160a01b03168152602001908152602001600020805480602002602001604051908101604052809291908181526020016000905b828210156106e9576000848152602090819020604080516080810182526004860290920180548352600180820154848601526002820154928401929092526003015460ff16151560608301529083529092019101610690565b50505050905060005b81518110156107af5781818151811061070d5761070d6112f6565b60200260200101516060015161079d5781818151811061072f5761072f6112f6565b602002602001015160400151421061077157818181518110610753576107536112f6565b6020026020010151602001518461076a91906114ec565b935061079d565b818181518110610783576107836112f6565b6020026020010151602001518361079a91906114ec565b92505b806107a781611322565b9150506106f2565b50919590945092505050565b600360205281600052604060002081815481106107d757600080fd5b90600052602060002001600091509150505481565b600081116108505760405162461bcd60e51b815260206004820152602b60248201527f5769746864726177616c20616d6f756e74206d7573742062652067726561746560448201526a72207468616e207a65726f60a81b60648201526084016100be565b336000908152600260205260408120805490919083906108a85760405162461bcd60e51b81526020600482015260136024820152724e6f207374616b657320617661696c61626c6560681b60448201526064016100be565b82546000906001600160401b038111156108c4576108c46113ad565b6040519080825280602002602001820160405280156108ed578160200160208202803683370190505b5090506000805b8554811080156109045750600084115b15610ae15785818154811061091b5761091b6112f6565b600091825260209091206003600490920201015460ff1615801561096257504286828154811061094d5761094d6112f6565b90600052602060002090600402016002015411155b80156109915750600086828154811061097d5761097d6112f6565b906000526020600020906004020160010154115b15610acf576000848783815481106109ab576109ab6112f6565b906000526020600020906004020160010154116109eb578682815481106109d4576109d46112f6565b9060005260206000209060040201600101546109ed565b845b90506109f981876114ec565b9550610a0581866114ff565b945080878381548110610a1a57610a1a6112f6565b90600052602060002090600402016001016000828254610a3a91906114ff565b92505081905550868281548110610a5357610a536112f6565b906000526020600020906004020160010154600003610aa3576001878381548110610a8057610a806112f6565b60009182526020909120600490910201600301805460ff19169115159190911790555b808484610aaf81611322565b955081518110610ac157610ac16112f6565b602002602001018181525050505b80610ad981611322565b9150506108f4565b5085841015610b3e5760405162461bcd60e51b815260206004820152602360248201527f496e73756666696369656e7420756e6c6f636b65642073744554482062616c616044820152626e636560e81b60648201526084016100be565b6000816001600160401b03811115610b5857610b586113ad565b604051908082528060200260200182016040528015610b81578160200160208202803683370190505b50905060005b82811015610bd857838181518110610ba157610ba16112f6565b6020026020010151828281518110610bbb57610bbb6112f6565b602090810291909101015280610bd081611322565b915050610b87565b506000805460015460405163095ea7b360e01b81526001600160a01b039182166004820152602481018b905291169063095ea7b3906044016020604051808303816000875af1158015610c2f573d6000803e3d6000fd5b505050506040513d601f19601f82011682018060405250810190610c539190611512565b905080610c945760405162461bcd60e51b815260206004820152600f60248201526e105c1c1c9bdd985b0819985a5b1959608a1b60448201526064016100be565b600154604051636b34082160e11b81526000916001600160a01b03169063d668104290610cc79086903390600401611534565b6000604051808303816000875af1158015610ce6573d6000803e3d6000fd5b505050506040513d6000823e601f3d908101601f19168201604052610d0e91908101906113c3565b905060005b8151811015610d70573360009081526003602052604090208251839083908110610d3f57610d3f6112f6565b6020908102919091018101518254600181018455600093845291909220015580610d6881611322565b915050610d13565b50336001600160a01b03167fd00587790ca6bc06b11fa40447d4e599799aebd7ca89c6ab4b3adfb121e3841e8a83604051610dac92919061155e565b60405180910390a2505050505050505050565b60003411610e1b5760405162461bcd60e51b8152602060048201526024808201527f45544820616d6f756e74206d7573742062652067726561746572207468616e206044820152637a65726f60e01b60648201526084016100be565b603c811015610e785760405162461bcd60e51b815260206004820152602360248201527f4c6f636b2074696d65206d757374206265206174206c656173742031206d696e60448201526275746560e81b60648201526084016100be565b6000805460405163a1903eab60e01b81526001600160a01b039091169063a1903eab903490610eab908590600401611190565b60206040518083038185885af1158015610ec9573d6000803e3d6000fd5b50505050506040513d601f19601f82011682018060405250810190610eee919061133b565b90506000610efc83426114ec565b33600081815260026020818152604080842081516080810183528981528084018a81528184018981526060808401898152855460018082018855968b529988902094516004909a0290940198895591519388019390935591519486019490945592516003909401805460ff191694151594909417909355825134815290810187905291820184905292935090917fb4caaf29adda3eefee3ad552a8e85058589bf834c7466cae4ee58787f70589ed910160405180910390a2505050565b60026020528160005260406000208181548110610fd557600080fd5b60009182526020909120600490910201805460018201546002830154600390930154919450925060ff1684565b6001600160a01b03821660009081526003602090815260408083208054825181850281018501909352808352849383018282801561105f57602002820191906000526020600020905b81548152602001906001019080831161104b575b5050505050905060005b81518110156110af5783828281518110611085576110856112f6565b60200260200101510361109d576001925050506110b6565b806110a781611322565b915050611069565b5060009150505b92915050565b6001600160a01b0382166000908152600360205260408120905b815481101561118a57828282815481106110f2576110f26112f6565b9060005260206000200154036111785781548290611112906001906114ff565b81548110611122576111226112f6565b906000526020600020015482828154811061113f5761113f6112f6565b90600052602060002001819055508180548061115d5761115d61157f565b6001900381819060005260206000200160009055905561118a565b8061118281611322565b9150506110d6565b50505050565b6001600160a01b0391909116815260200190565b80356001600160a01b03811681146111bb57600080fd5b919050565b6000806000604084860312156111d557600080fd5b83356001600160401b03808211156111ec57600080fd5b818601915086601f83011261120057600080fd5b81358181111561120f57600080fd5b8760208260051b850101111561122457600080fd5b60209283019550935061123a91860190506111a4565b90509250925092565b60006020828403121561125557600080fd5b61125e826111a4565b9392505050565b600081518084526020808501945080840160005b8381101561129557815187529582019590820190600101611279565b509495945050505050565b60208152600061125e6020830184611265565b600080604083850312156112c657600080fd5b6112cf836111a4565b946020939093013593505050565b6000602082840312156112ef57600080fd5b5035919050565b634e487b7160e01b600052603260045260246000fd5b634e487b7160e01b600052601160045260246000fd5b6000600182016113345761133461130c565b5060010190565b60006020828403121561134d57600080fd5b5051919050565b81835260006001600160fb1b0383111561136d57600080fd5b8260051b80836020870137939093016020019392505050565b60608152600061139a606083018688611354565b6020830194909452506040015292915050565b634e487b7160e01b600052604160045260246000fd5b600060208083850312156113d657600080fd5b82516001600160401b03808211156113ed57600080fd5b818501915085601f83011261140157600080fd5b815181811115611413576114136113ad565b8060051b604051601f19603f83011681018181108582111715611438576114386113ad565b60405291825284820192508381018501918883111561145657600080fd5b938501935b828510156114745784518452938501939285019261145b565b98975050505050505050565b606081526000611494606083018688611354565b82810360208401526114a68186611265565b91505060018060a01b038316604083015295945050505050565b6040815260006114d4604083018587611354565b905060018060a01b0383166020830152949350505050565b808201808211156110b6576110b661130c565b818103818111156110b6576110b661130c565b60006020828403121561152457600080fd5b8151801515811461125e57600080fd5b6040815260006115476040830185611265565b905060018060a01b03831660208301529392505050565b8281526040602082015260006115776040830184611265565b949350505050565b634e487b7160e01b600052603160045260246000fdfea2646970667358221220e5f867e82c1169d8296a7e4f22645fabf7f024687049018048c81d654cc9d88664736f6c63430008140033",
  "linkReferences": {},
  "deployedLinkReferences": {}
}